:020000040800F2
:1000000098070020891800085102000853020008D0
:1000100055020008570200085902000800000000BD
:100020000000000000000000000000005B0200086B
:100030005D020008000000005F0200086102000885
:10004000A3180008A3180008A3180008A3180008A4
:10005000A3180008A3180008A3180008A318000894
:10006000A3180008A3180008A3180008A318000884
:10007000A3180008A3180008A3180008A318000874
:10008000A3180008A3180008A3180008A318000864
:10009000A3180008A3180008A3180008A318000854
:1000A000A3180008A3180008A3180008A318000844
:1000B000F5010008A3180008A3180008A3180008F9
:1000C000A3180008A3180008A3180008A318000824
:1000D000A318000875190008A3180008A318000841
:1000E0001D020008A3180008A3180008A3180008A0
:1000F000A3180008A3180008A3180008A3180008F4
:10010000A3180008A3180008A3180008A3180008E3
:10011000A3180008A3180008A3180008A3180008D3
:10012000A3180008A3180008A3180008A3180008C3
:1001300000F002F800F03FF80AA090E8000C8244BA
:100140008344AAF10107DA4501D100F034F8AFF297
:10015000090EBAE80F0013F0010F18BFFB1A43F0A5
:10016000010318472027000040270000103A24BF51
:1001700078C878C1FAD8520724BF30C830C144BF0C
:1001800004680C607047000000230024002500264E
:10019000103A28BF78C1FBD8520728BF30C148BFEA
:1001A0000B607047632902F03082002070471FB552
:1001B0001FBD10B510BD02F063FA1146FFF7F7FF3F
:1001C00000F008F802F081FA03B4FFF7F2FF03BC75
:1001D00001F07AFB01F002FC4FF4E13001F07EFB0C
:1001E00017A002F09BF9194801F0DBFF174802F055
:1001F0004FF9FBE710B501218C07204601F0A1F96A
:1002000000280AD04FF47A71104802F0D7F820463F
:10021000BDE81040012101F0A0B910BD10B54FF4A8
:100220000044204600F073F9002807D0074802F088
:1002300034F82046BDE8104000F084B910BD00003D
:1002400073746172743A0D0A000000003C000020D3
:100250007047FEE7FEE7FEE7FEE77047704770472E
:10026000704700000CB500224C48009201920168D2
:1002700041F4803101604FF4A063016801F4003162
:1002800001910099491C0091019911B90099994275
:10029000F3D10168890333D50121019140490A68EE
:1002A00042F010020A600A6822F003020A600A683B
:1002B00042F002020A604168416041684160416861
:1002C00041F480614160416821F47C1141604168E2
:1002D00041F4E8114160016841F0807101600168FA
:1002E0008901FCD5416821F003014160416841F07A
:1002F000020141604168C1F381010229FAD10CBDBC
:1003000001920CBD254810B5016841F00101016062
:100310004168244A114041600168234A114001604C
:10032000016821F480210160416821F4FE014160EF
:100330004FF41F018160FFF795FF1C494FF00060EB
:10034000086010BD154A10B55068194B10F00C012B
:10035000184803D0042901D0082901D0036012E015
:100360005168536801F470114FF0020413F4803F98
:1003700004EB914102D053689B0301D50E4B00E082
:100380000B4B5943016051680A4AC1F30311121D16
:10039000515C0268CA40026010BD000000100240BB
:1003A000002002400000FFF8FFFFF6FE08ED00E02D
:1003B00000127A000000002000093D00284908438F
:1003C00028490860704730B50F23C27801780125AD
:1003D000F2B1244A126801F1E02102F4E062C2F5B0
:1003E000E062120AC2F10404D3404278A240847849
:1003F0001C401443220181F80024007800F01F0102
:100400008D404009800000F1E020C0F8005130BD6F
:1004100001F01F0085404809800000F1E020C0F88D
:10042000805130BD104A114001430E48001F016049
:1004300070470C4A121D0029116801D0014300E0E9
:100440008143116070474FF0E0210428086903D010
:1004500020F004000861704740F00400FAE7000053
:100460000000FA050CED00E080FFFF1F3749002077
:100470000860091D0860091D0860091D08603349EE
:10048000334814310860704730B5304A83790168C9
:1004900053B313688B431360111D0B680468A343A7
:1004A0000B60017911440B68046823430B60274BF0
:1004B000083319680468A14319601C1D2168056888
:1004C000A94321604179102905D011440A680068C8
:1004D00002430A6030BD196802681143196021683F
:1004E00000680143216030BD0079104402688A43EE
:1004F000026030BD0021016001710C2242718171E6
:100500007047124910310A6802430A607047014679
:100510000E4A0020143212680A4200D001207047AF
:100520000A49143108607047084A014600201268E1
:10053000064B0A4014331B680B4202D0002A00D03D
:1005400001207047014914310860704700040140E0
:10055000FFFF0F008F4910B5884206D1012104200A
:1005600000F049FA002104203BE08B49884206D183
:100570000121082000F03FFA0021082031E08749DE
:10058000884206D10121102000F035FA0021102008
:1005900027E08349884206D10121202000F02BFA70
:1005A000002120201DE07F49884206D10121402002
:1005B00000F021FA0021402013E07B49884206D157
:1005C0000121802000F017FA0021802009E07749FE
:1005D00088420AD184150121204600F00CFA00213E
:1005E0002046BDE8104000F006BA10BD10B501214C
:1005F000084600F000FA0021BDE81040012000F09C
:10060000FAB9F0B5CC78002204F00F03E40601D566
:100610008C7823430C784FF00F0C14F0FF0F4FF041
:10062000010E1BD005680E880EFA02F42640A64281
:1006300010D196000CFA06F725EA070703FA06F52B
:10064000CE783D43282E02D0482E02D002E04461ED
:1006500000E00461521C082AE5D305600A88FF2ADD
:100660001CD94468002202F108060EFA06F50E882D
:100670002E40AE420ED196000CFA06F7BC4303FAA8
:1006800006F7CE783C43282E00D14561CE78482E1F
:1006900000D10561521C082AE5D34460F0BD4FF635
:1006A000FF710180022181700421C17070470246F0
:1006B000002092680A4200D001207047806880B212
:1006C000704702460020D2680A4200D001207047DD
:1006D000C06880B2704701617047416170470AB1DC
:1006E0000161704741617047C160704741F48032D9
:1006F0008261816182618169806970472C4B10B58C
:100700001A684FF68074224042EA001008431860CD
:1007100010BD2849C8617047F0B5254C002801DAA2
:10072000E36900E06368450D2E0185B2C0F301570F
:10073000B540C0F30342032F05D0C6020AD50326F5
:100740009640B34307E023F07062636823F0706360
:10075000636002E0AB4343F0706201B12A430028BA
:1007600001DAE261F0BD6260F0BD10B58A0721F0E8
:1007700003040F49120F21440F238C6893409C43BC
:100780008C608B68904003438B6010BD0949C1F8B1
:10079000DC00704700080140000C014000100140DF
:1007A0000014014000180140001C014000200140DD
:1007B0000000014000002042A548016841F001010D
:1007C00001604168A34A114041600168A24A11409A
:1007D0000160016821F480210160416821F4FE017B
:1007E00041604FF41F018160704799490A6822F403
:1007F00080320A600A6822F480220A60B0F5803FE5
:1008000007D0B0F5802F03D1086840F4A02008601D
:100810007047086840F48030F9E703460020590922
:100820008B4A01290AD002290AD0516A03F01F021B
:10083000012393400B4200D0012070471168F5E777
:10084000116AF3E718B500204FF4A064009031203E
:10085000FFF7E3FF0099491C0091A14201D0002855
:10086000F5D03120FFF7D9FF002800D0012018BDB6
:10087000774A116821F0F80141EAC0001060704722
:10088000764908607047724B5A68084322F47C121C
:100890001043586070477149086670476C4A516848
:1008A00021F003010143516070476948406800F03E
:1008B0000C007047664A516821F0F0010143516015
:1008C0007047634A516821F4E06101435160704709
:1008D0005F4A516821F4605141EAC000506070479E
:1008E0005B4A0029517A01D0014300E081435172F3
:1008F00070475A49C1F8D8007047554A516821F4E9
:1009000040410143516070475149002281F8202045
:1009100081F82020012802D0042802D1052081F886
:10092000200070474E490860704749490A6A0243EF
:100930000A6270474A4944390860704730B5444AF2
:100940005168484B11F00C0103D0042901D008294B
:1009500001D0036012E05168536801F470114FF048
:10096000020413F4803F04EB914102D053689B03CF
:1009700001D53D4B00E03B4B5943016051680F23CB
:1009800003EA1111394B5C5C0168E1404160546835
:10099000072505EA14241C5D21FA04F484605468D8
:1009A00005EAD4241B5DD940C1605268032303EAE1
:1009B00092322E4B1B1F9A5CB1FBF2F1016130BDEC
:1009C000234A0029516901D0014300E0814351616C
:1009D00070471F4A0029916901D0014300E081431B
:1009E000916170471A4A0029D16901D0014300E0A2
:1009F0008143D1617047164A0029D16801D0014373
:100A000000E08143D1607047114A0029116901D08B
:100A1000014300E08143116170471149403908608A
:100A200070470E49C86470470949C8717047084843
:100A3000416A41F0807141627047054A01460020D9
:100A400092680A4200D001207047014988727047BD
:100A5000001002400000FFF8FFFFF6FE00004242D7
:100A60008004424200127A0000093D001800002074
:100A7000F94910B5884202D10121C41486E0B0F1D1
:100A8000804F09D0F54988420DD101210220FFF79E
:100A9000BBFF0021022064E001210846FFF7B4FFFC
:100AA000002101205DE0EE49884206D101210420A9
:100AB000FFF7AAFF0021042053E0EA49884206D14B
:100AC00001210820FFF7A0FF0021082049E0E649A6
:100AD000884206D101211020FFF796FF0021102047
:100AE0003FE0E249884206D101212020FFF78CFF38
:100AF0000021202035E0DE49884202D10121441442
:100B000044E0DC49884202D10121CC043EE0DA49CC
:100B1000884202D101210C0538E0D849884202D12F
:100B200001214C0532E0D649884206D101214020FE
:100B3000FFF76AFF0021402013E0D249884206D126
:100B400001218020FFF760FF0021802009E0CE49CD
:100B500088420AD1841501212046FFF755FF002164
:100B60002046BDE81040FFF74FBFC849884202D178
:100B700001210C040AE0C649884202D101214C043B
:100B800004E0C44988420AD101218C042046FFF7C1
:100B900032FF2046BDE810400021FFF72CBF10BDFA
:100BA00030B50288AC4CB24DA0420DD0A8420BD05B
:100BB000B0F1804F08D0A94B984205D0A84B98427D
:100BC00002D0A84B984203D122F070034A881A43FE
:100BD000A54B984206D0A54B984203D022F440730F
:100BE000CA881A4302808A8882850A880285A042C0
:100BF0000AD0A84208D0A54A904205D0A44A904203
:100C000002D0A44A904201D1097A01860121818251
:100C100030BD30B5028C22F001020284028C838840
:100C2000048B22F0020224F073050C882C430D89FA
:100C300015434A882A43884DA8420BD08C4DA842C0
:100C400008D0924DA84205D0914DA84202D0914DB6
:100C5000A8420DD122F008054A8923F440732A43A3
:100C600022F004058A882A438D891D43CB892B43B2
:100C700083800483C9888186028430BD70B5028C6C
:100C800022F010020284028C8388048B0D8824F4E5
:100C9000E6464FF6FF7404EA052535430E8922F037
:100CA000200204EA061616434A8804EA0212324376
:100CB000694EB04202D06E4EB04215D122F080068D
:100CC0004A8923F4406304EA0212324322F04006C8
:100CD0008A8804EA021232438E8904EA86061E4399
:100CE000CB8904EA8303334383800583C988018762
:100CF000028470BD70B5028C22F480720284028C72
:100D00008388848B0D8824F0730425430E894FF665
:100D1000FF7422F4007204EA062616434A8804EAA5
:100D2000022232434C4EB04202D0514EB04215D155
:100D300022F400664A8923F4405304EA0222324333
:100D400022F480668A8804EA022232438E8904EA09
:100D500006161E43CB8904EA03133343838085833D
:100D6000C9888187028470BD70B5028C22F48052DC
:100D70000284058C8288838B0C8823F4E6464FF628
:100D8000FF7303EA0424344325F400560D8903EA73
:100D9000053535434E8803EA06362E432E4DA842CC
:100DA00002D0334DA84205D122F480458A8903EA56
:100DB00082122A4382808483C988A0F84010068466
:100DC00070BD828B22F440628283828B4FF6FF7368
:100DD00003EA01210A4382837047828B22F00C02CE
:100DE0008283828B0A4382837047028B22F44062A3
:100DF0000283028B4FF6FF7303EA01210A43028349
:100E00007047F0B5048C24F010040484078B048C24
:100E10004FF6FF7527F4734705EA03333B4305EAB2
:100E200002221A430C4B05EA011698420ED0104BD1
:100E300098420BD0B0F1804F08D0084B984205D0B3
:100E4000074B984202D0074B984225D124F020014D
:100E5000314341F0100124E0002C01400004004027
:100E600000080040000C004000100040001400404A
:100E700000340140004C014000500140005401404A
:100E800000180040001C00400020004000400140CD
:100E9000004401400048014024F0A0030B4343F00C
:100EA000100102830184F0BD028B22F00C02028348
:100EB000028B0A430283704770B5048C24F001044E
:100EC0000484058B048C4FF6FF7606EA0313134364
:100ED00025F0F305F84A2B4390420ED0F74A904292
:100EE0000BD0B0F1804F08D0F54A904205D0F54ABA
:100EF000904202D0F44A904202D124F0020201E072
:100F000024F00A020A4342F001010383018470BD08
:100F10002DE9F84F0D4604460888E74FDFF89CC3DB
:100F2000DFF89C83DFF89C934988AA882B894FF0CF
:100F3000804A48B304282FD04FF6FF7608289346FE
:100F400032D0208C9E4620F480502084A38B208CAD
:100F500006EA0132009223F4734306EA0B221A4395
:100F600006EA0E331343BC420AD0644508D0544508
:100F700006D0444504D04C4502D0D34A944242D1D5
:100F800020F40050009940E02046FFF795FFE988E3
:100F90002046BDE8F84F87E72046FFF732FFE98893
:100FA0002046BDE8F84F20E7208C20F48070208494
:100FB000B4F81CE0208C06EA031306EA01222EF0A6
:100FC000F30E43EA0B0343EA0E030092BC420AD03D
:100FD000644508D0544506D0444504D04C4502D061
:100FE000B94A944203D120F40070009901E020F442
:100FF0002060084340F48070A3832084E988204661
:10100000BDE8F84FE9E620F40240084340F4805080
:10101000A3832084E9882046BDE8F84FD1E62DE976
:10102000F0410C46002649880746012501B90226F1
:10103000A288012A00D10225208823890028384669
:1010400010D0FFF7DEFEE1883846FFF7CEFE238999
:101050002A4631463846FFF72FFFE1883846BDE87B
:10106000F04121E7FFF728FFE1883846FFF71CFF32
:1010700023892A4631463846FFF7C3FEE1883846C1
:10108000BDE8F041B1E610B50A884B88CC881A4318
:101090008B8823431A430B891A434B8989891A4346
:1010A0000A43A0F8442010BD4FF6FF718180002153
:1010B0000180C18041800172704700210180418020
:1010C0008180C180018141818181C181704700217E
:1010D0000180418001228280C1800181704700210E
:1010E000018041808180C18001814181818170477F
:1010F0000029018802D041F0010101E021F0010145
:1011000001807047002930F8441F02D041F40041AB
:1011100001E0C1F30E0101807047002A828901D0ED
:101120000A4300E08A4382817047818270471143FD
:10113000A0F848107047002A828901D00A4300E0D5
:101140008A4382817047018921F00701018170473C
:10115000028922F070020A430281704700B50346FB
:10116000FFF7F6FF188940F00700188100BD70B541
:1011700016460D46602904464FF0010231460AD05A
:10118000FFF79AFE29462046FFF7E2FF208940F04C
:101190000700208170BDFFF734FEF3E730B5048906
:1011A0004FF6FF7505EA03231343E4B20B432343D1
:1011B000038130BD10B50446FFF7F0FF208940F0F1
:1011C0007700208110BD10B50446FFF7E7FF2089A6
:1011D00040F48040208110BD0185828270470288E2
:1011E00022F070020A430280704770B50589048BB3
:1011F000068C25F007050D434FF6FC410C4040F2EC
:1012000001110C434FF6FF7101EA031126F022068B
:101210001143314305810483018470BD028B22F0A8
:1012200070020A4302837047028B4FF6FF7322F469
:10123000E04203EA0121114301837047828B22F0CF
:1012400070020A4382837047828B4FF6FF7322F449
:10125000E04203EA0121114381837047002901889C
:1012600002D041F0800101E021F08001018070474F
:101270000029818802D041F0040101E021F004013D
:10128000818070470029818802D041F0080101E087
:1012900021F00801818070470029818802D041F047
:1012A000010101E021F0010181807047028B22F0F1
:1012B00008020A4302837047002C014000340140B9
:1012C0000004004000080040000C0040028B4FF674
:1012D000FF7322F4006203EA012111430183EAE76C
:1012E000828B22F008020A438283E4E7828B4FF666
:1012F000FF7322F4006203EA012111438183DAE7DC
:10130000028B22F004020A430283D4E7028B4FF6D9
:10131000FF7322F4806203EA012111430183CAE7CB
:10132000828B22F004020A438283C4E7828B4FF649
:10133000FF7322F4806203EA012111438183BAE73B
:10134000028B22F080020A430283B4E7028B4FF63D
:10135000FF73C2F30E0203EA012111430183AAE7DE
:10136000828B22F080020A438283A4E7828B4FF6AD
:10137000FF73C2F30E0203EA0121114381839AE74E
:10138000028C22F002020A43028494E7028C22F0CB
:1013900008020A4302848EE7028C4FF6FF7322F0A4
:1013A000200203EA01111143018484E7028C4FF605
:1013B000FF7322F0800203EA0111114301847AE7EE
:1013C000028C4FF6FF7322F4007203EA01211143ED
:1013D000018470E7028C4FF6FF7322F4006203EA87
:1013E00001211143018466E7028C4FF6FF7322F45A
:1013F000005203EA0131114301845CE710B5012377
:10140000048C8B409C430484038C8A4013430384E4
:1014100010BD10B50423048C8B409C430484038CC2
:101420008A401343038410BD30B50124058C00F1BC
:1014300018038C40A543058489B108290FD0091FE2
:10144000C1F34E001844016821F4E04101600168D5
:101450004FF6FF7303EA02221143016030BD03EB34
:101460005100016821F0700101600168F4E7002972
:10147000018802D041F0020101E021F00201018067
:1014800019E70029018802D041F0040101E021F0B0
:10149000040101800FE70029818802D041F080011A
:1014A00001E021F08001818005E7028822F0080236
:1014B000028002880A430280FDE6828822F07002E0
:1014C000828082880A438280F5E6028922F0070240
:1014D000028102890A430281EDE6028922F080023C
:1014E000028102890A430281E5E68184E3E681857F
:1014F000E1E68186DFE60187DDE68187DBE6A0F8AD
:101500004010D8E6028822F44072028002880A4322
:101510000280D0E6808ECEE6008FCCE6808FCAE6D1
:10152000B0F84000C7E6808CC5E6008DC3E60246F1
:101530000020128A0A4200D00120BCE6C943018281
:10154000B9E602460020138A92890B4202EA0102A0
:1015500002D0002A00D00120ADE6C9430182AAE6EC
:10156000C44910B588420AD101218C032046FFF7F7
:1015700042FA2046BDE810400021FFF73CBABE49C0
:10158000884202D101214C0410E0BC49884202D1BA
:1015900001218C040AE0BA49884202D10121CC041D
:1015A00004E0B84988420AD101210C052046FFF722
:1015B0002BFA2046BDE810400021FFF725BA10BDE8
:1015C00030B50446008A85B00D464CF6FF710840E0
:1015D000E98801432182A0894EF6F3110840A988C9
:1015E0002A8911436A8902431143A181A08A4FF6D7
:1015F000FF410840A9890143A1826846FFF79EF98F
:101600009C48844201D1039800E00298A189090412
:1016100000EBC00101EB0010296801D5490000E092
:101620008900B0FBF1F06422B0FBF2F109010B0973
:101630006FF018056B4300EB8300A3891D044FF086
:10164000320306D503EBC000B0FBF2F000F0070058
:1016500005E003EB0010B0FBF2F000F00F000843D0
:10166000208105B030BD4FF416510160002181800A
:10167000C18001810C2242818181704710B5028AAC
:101680004FF2FF031A400B884C8823438C88C9888B
:101690000C4323431343038210BD0021018041808A
:1016A0008180C18070470029818902D041F40051B6
:1016B00001E021F400518181704710B5C1F342135C
:1016C00001F01F040121A140012B07D0022B07D0FC
:1016D0001430002A026805D00A4304E00C30F8E711
:1016E0001030F6E78A43026010BD002A828A01D0DA
:1016F0000A4300E08A4382827047028A22F00F0286
:101700000282028A0A4302827047828922F40062BE
:10171000828182890A43828170470029818902D0AF
:1017200041F0020101E021F0020181817047028A4B
:1017300022F020020282028A0A43028270470029B4
:10174000018A02D041F4804101E021F4804101820C
:101750007047C1F30801818070478088C0F308009A
:101760007047818941F0010181817047028BD2B2BB
:101770000283028B42EA012101837047028B02F44B
:101780007F420283028B0A43028370470029818AC9
:1017900002D041F0200101E021F020018182704758
:1017A0000029818A02D041F0100101E021F01001EE
:1017B000818270470029818A02D041F0080101E04E
:1017C00021F00801818270470029818902D041F40B
:1017D000004101E0C1F30E01818170470029818A37
:1017E00002D041F4006101E021F400618182704780
:1017F000828A22F004028282828A0A4382827047AD
:101800000029818A02D041F0020101E021F00201A9
:10181000818270470246002012880A4200D00120CF
:101820007047C9430180704770B501F01F0501265C
:101830000024C1F3421306FA05F2012B0FD0022B4C
:101840000FD0838A4FEA11210088134206FA01F66D
:1018500000EA060001D000B10124204670BD838952
:10186000F0E7038AEEE70A0A01219140C9430180AB
:10187000704700000038014000440040004800402C
:10188000004C00400050004009488047094800478C
:10189000FEE7FEE7FEE7FEE7FEE7FEE7FEE7FEE720
:1018A000FEE7FEE704480549054A064B704700007D
:1018B0000503000831010008980100209807002066
:1018C0009803002098030020704740490A88520678
:1018D000FCD53E4AC1B2121D1180704770B5054655
:1018E00086B0012144F20400FFF773F84FF4007052
:1018F000ADF8100003248DF812401820344E8DF8F6
:10190000130004A93046FEF77CFE3015ADF8100038
:1019100004208DF8130004A93046FEF772FE25203E
:101920008DF814008DF815408DF8164001208DF8C3
:10193000170005A8FEF747FD0020ADF80400ADF83C
:101940000600ADF80800ADF80C000C201F4CADF8F7
:101950000A00009569462046FFF732FE012240F258
:1019600025512046FFF7A9FE01212046FFF79BFEE7
:1019700006B070BD70B5154C40F225512046FFF7FA
:1019800053FF00280ED02046FFF7E7FE114AC1B2F0
:101990001088030406D444044FF0000306D50A2936
:1019A00001D0138070BD40F400400DE00D2909D036
:1019B000C0F30D04084D401C80B229551080C72883
:1019C000EFD870BD40F48040108070BD00380140F9
:1019D00000080140280000207000002010B56FF0C2
:1019E0000400FEF730FD204820490068B0FBF1F00C
:1019F0001F49C0B200EB40020870C2EBC0104FF6A6
:101A0000FF7202EAC000488010BD194909784843B6
:101A10004FF0E021486100238B61086940F001002C
:101A200008610869C20701D0C003FAD5086920F02F
:101A3000010008618B6170470D49498848434FF0A8
:101A4000E021486100238B61086940F001000861D2
:101A50000869C20701D0C003FAD5086920F0010067
:101A600008618B61704700000000002000127A00BE
:101A70003000002038B504464FF43E300D46204477
:101A8000810A042088400121FEF7A3FF10208DF871
:101A90000300ADF8005003208DF80200694620468F
:101AA000FEF7AFFD38BD38B504464FF43E300D4665
:101AB0002044810A0420884040F001000121FEF703
:101AC00088FF18208DF80300ADF8005003208DF832
:101AD000020069462046FEF794FD38BDF8B504467D
:101AE0004FF43E300E462044810A042088401546BB
:101AF0000121FEF76EFF8DF80350ADF80060032062
:101B00008DF8020069462046FEF77BFDF8BD000017
:101B100010B50446F948844203D10121C014FEF7F0
:101B200058FFB4F1804F6AD0F548844203D10121B7
:101B30000220FEF757FFF348844203D1012104201D
:101B4000FEF750FFF048844203D101210820FEF740
:101B500049FFEE48844203D101211020FEF742FFE5
:101B6000EB48844203D101212020FEF73BFFE948E6
:101B7000844203D101214014FEF72BFFE648844242
:101B800003D10121C804FEF724FFE448844203D1B5
:101B900001210805FEF71DFFE148844203D1012120
:101BA0004805FEF716FFDF48844203D1012140209B
:101BB000FEF718FFDC48844203D101218020FEF7A4
:101BC00011FFDA48844203D101218015FEF70AFF94
:101BD000D748844203D101210804FEF7FAFED54814
:101BE000844203D101214804FEF7F3FED248844227
:101BF0000BD10121BDE810408804FEF7EABE0121A7
:101C0000BDE810400846FEF7EDBE10BD08B5B0F1C6
:101C1000804F1AD0BA4B984202D11D238DF8003064
:101C2000B84B984202D11E208DF800008DF80110AB
:101C30008DF8022001208DF803004FF4A060FEF71C
:101C4000BDFB6846FEF7BFFB08BD1C20ECE7FEB5F8
:101C500015460C460646FFF75BFF0022ADF8005024
:101C6000ADF80440ADF80220ADF8062069463046D4
:101C7000FEF796FF01213046FFF760FC0122114676
:101C80003046FFF74AFA01213046FFF731FAFEBD30
:101C90003EB504460068FFF73BFF627A217A206870
:101CA000FFF7B4FF2068FEF7E3FE2068FFF74BFA6A
:101CB000E088ADF800000020ADF80200A188ADF882
:101CC0000410ADF8060069462068FEF769FF01219F
:101CD0002068FFF733FC012211462068FFF71DFA48
:101CE00001212068FFF704FAE18801222068FFF74C
:101CF00073FA3EBD1FB5044602207023ADF80800FC
:101D00000120ADF80030ADF80610ADF80200012A50
:101D10000ED0022A15D0032A1CD0042A07D1694606
:101D20002046FFF721F808212046FFF7DFFA1FBD04
:101D300069462046FEF76DFF08212046FFF7B6FAF8
:101D40001FBD69462046FEF799FF08212046FFF790
:101D5000BDFA1FBD69462046FEF7CCFF082120468C
:101D6000FFF7BEFA1FBD10B5044681898068FFF7F2
:101D70009AFEE288A1882068FFF769FF227CE1894A
:101D80002068BDE81040B5E7027C012A08D0022A8D
:101D900009D0032A0AD0042A0BD10068FFF7AFBB91
:101DA0000068FFF7A6BB0068FFF7A5BB0068FFF758
:101DB000A4BB70472DE9FE430F460D468046012126
:101DC0001E46914600240846FEF703FE4A46394661
:101DD0004046FFF783FE02E06D08641CE4B2002D6C
:101DE000FAD1601DC5B24FF43E32641E08EB02000A
:101DF000E1B2C0F38720FEF7B8FC0B2D01D28DF8BD
:101E00000050A5F10B00052802D217208DF8000024
:101E1000103D062D02D228208DF8000001248DF8F7
:101E200003404FF4A060FEF7C9FA70788DF8010006
:101E3000B0788DF802006846FEF7C5FA8DF80A40C2
:101E4000002001978DF8080030788DF8090001A86E
:101E5000FEF71AFBBDE8FE8370B515460E46044634
:101E600088B01A4629463046FFF738FE2068FFF74B
:101E70004FFEA089ADF81400E089ADF810000020F5
:101E8000ADF81600ADF8120004A92068FEF788FE30
:101E9000A08AADF80400E08A0125ADF80600ADF88F
:101EA0000850208BADF80A00608BADF80C0001A93A
:101EB0002068FFF72DF82068B0F1804F02D11C2078
:101EC0008DF800000E492068884202D11D208DF84F
:101ED00000000C492068884202D11E208DF80000C5
:101EE000A07C8DF80100E07C8DF802008DF8035095
:101EF0006846FEF768FA08B070BD0000002C01408B
:101F00000004004000080040000C004000100040A9
:101F10000014004000340140004C014000500140DA
:101F20000054014000180040001C00400020004008
:101F300000400140004401400048014004490A6853
:101F400002430A60704702490A6882430A60704788
:101F5000000401402DE9F05FDFF828850F460446B4
:101F60004FF40046002531464046FEF7B4FB4FF4DF
:101F7000005B59464046FEF7AEFB3046FFF7E3FFF5
:101F800031464046FEF7A9FB4FF0010984F8029064
:101F9000AA4684F803A07820FFF737FD594640464B
:101FA000FEF79BFB0A20FFF730FD31464046FEF767
:101FB00092FB31464046FEF77AFB0128A0780DD00F
:101FC00000280DD084F802A0F80784F80390594641
:101FD000404606D0FEF77FFB6D1C04E00028E8D1E8
:101FE00091E0FEF77AFB46464FF400484146B14681
:101FF0003046FEF75CFB10B9E0780028F4D10026EB
:102000007F0841464846FEF752FB012802D1E0789E
:102010000028F6D1F8075946484604D0FEF75BFB86
:102020006D1CEDB201E0FEF758FB41464846FEF755
:102030003EFB10B9E0780028F7D1761CF6B2072EE7
:10204000DED347464E4639463046FEF730FB012880
:1020500002D1E0780028F6D1E8075946304602D090
:10206000FEF73BFB01E0FEF736FB35463E463946C0
:102070002846FEF71CFB10B9E0780028F6D131465F
:102080002846FEF714FB012802D1E0780028F6D19B
:102090005F4659462846FEF71EFB31462846FEF7A6
:1020A00006FB10B9E0780028F7D139462846FEF73C
:1020B000FEFA012802D1E0780028F6D13146284600
:1020C000FEF7F5FA012802D1E0780028F6D1314672
:1020D0002846FEF7ECFA10B9E0780028F7D1394627
:1020E0002846FEF7E4FA0028E0780AD058B13046D6
:1020F000FFF724FF84F803A084F802A03046BDE86F
:10210000F09F0028EBD13046FFF718FF4FF48040D6
:10211000F5E770B50D4616460446ED21FFF71AFFA8
:10212000607D0EB1284300E0A8436075C1B220462F
:10213000BDE870400EE770B504460025FF21FFF7AB
:1021400009FF00212046FFF705FF01220721204655
:10215000FFF7DFFF00212171A170E170218021755F
:10216000A160E160216184F831106019C17580F8C7
:1021700024106D1CEDB20D2DF7D34FF4FA70FFF75C
:102180005BFC002204212046FFF7C3FF002201214F
:102190002046FFF7BEFF2046BDE870400122022125
:1021A000B7E72DE9FF41B74C06464FF4005714221C
:1021B00039462046FFF792FCBD00142229462046EE
:1021C000FFF78CFC29462046FEF785FA3946204663
:1021D000FEF781FA0C208DF80C0000228DF80D20FE
:1021E0008DF80E2003AB142229462046FFF7E2FDAE
:1021F000E803009002208DF8080003208DF8090004
:102200004720ADF806004FF47A70ADF80400684638
:10221000FFF73EFD3046FFF78EFFBDE8FF812DE959
:10222000F0410026974F044606804FF4004138469F
:10223000FEF73DFA00282ED12661207D924D7914BB
:10224000D8B16888400868803846FEF730FA30B167
:10225000688840F4007068802878401C2870207DD1
:10226000401C2075207D0B2815D326752E7068889C
:1022700081050BD440F480400AE03846FEF717FA97
:102280000028EFD16E8001202071E8E740F4004083
:1022900020806E802671BDE8F081C0E730B5D3089C
:1022A00002F007040122A240CC5CD2B290F8315077
:1022B000002DCD5C0DD09543CD54002580F83150D4
:1022C000C95CA14204D0184410F8241F11430170C6
:1022D00030BD1543CD54F3E76C4A002102EB810376
:1022E0005B88834202D112F821007047491CC9B2B1
:1022F0006829F3D3FF20704730B501880446C8B27F
:10230000F02807D0E02809D0E12807D000251228BE
:1023100008D00BE0F02084F8310030BDE02084F8D4
:10232000320030BD94F83230E02B09D094F83230CE
:10233000E02B14D094F83220084662F31F2013E0FB
:1023400094F83100002814F8330F05D0401E04F82B
:1023500002092570657030BD401C207030BD94F8B6
:10236000331021B140F49050FFF7B6FF0246FF2A28
:1023700004D004F117012046FFF790FF258084F870
:10238000325084F8315030BD30B53F4A4FF47A7343
:10239000B3FBF1F104465068401C506081420CD2FE
:1023A000002555602088002807D0010404D5C0B25C
:1023B00020802046FFF7A0FF258030BD30B50D46B8
:1023C0000446FFF7E1FFA1784FF47A73002051B182
:1023D000B3FBF5F2A168C2EB0212491CA1608A426C
:1023E00002D2A07000E0A060E17849B1B3FBF5F241
:1023F000E168491CE160B1EB420F02D9E07000E0F6
:10240000E060217961B1B3FBF5F22169C2EB021200
:10241000491C2161B1EB420F01D92071207530BDFB
:10242000206130BD70B50D460446ED21FFF792FDE9
:10243000607D6840607501462046BDE8704089E5D2
:1024400010B50388E3B9CB0801F007041844012153
:10245000A14090F82430C9B20B4211D0022A02D018
:10246000012A04D00CE0C27D0A4203D108E0C27DFB
:102470000A4205D110F8242F8A430270012010BDB2
:10248000002010BD000C014034000020E4260008AC
:1024900070B5054602225321FFF7D2FF18B1022181
:1024A0002846FFF7BFFF022239212846FFF7C8FF61
:1024B00018B104212846FFF7B5FF04240222214663
:1024C0002846FFF7BDFF20B104F13D0111A000F047
:1024D00025F8641CE4B21E2CF0D31E2402222146EF
:1024E0002846FFF7ADFF20B104F13D0109A000F03F
:1024F00015F8641CE4B2272CF0D30222522128469E
:10250000FFF79EFF2846BDE8704001225221FFF7E9
:1025100097BF000025630000704700000FB4044916
:1025200010B503AA029800F07DF810BC5DF814FB0A
:102530002C0000202DE9F0410E46044600202062C8
:102540002046E168884730B3252805D0D4E9012129
:102550009047206A401CF2E7E16820460027884740
:10256000050018D0A5F14100192802D820354FF4F4
:1025700000673246294620462760FDF713FE40B12A
:10258000012804D0F61D26F007060836D8E7361DC8
:10259000D6E72846DAE7206ABDE8F08170B50C4638
:1025A0000546012A05D02878800600D5EA6900236F
:1025B00002E0012305E05B1C934202D2E05C0028AC
:1025C000F9D1A869E618C01AA861286A18442862D7
:1025D0002846AFF3008004E0D5E9012114F8010B8F
:1025E0009047B442F8D32846AFF3008070BD7047DF
:1025F00070477047704710B5436913B1AFF300805F
:1026000001E0FFF7CBFF012010BD127800F124019B
:102610000A7000224A700122EDE711684FF0FF3284
:10262000E9E70000074B70B50D467B4400F011F858
:102630000446284600F020F810B14FF0FF3070BD7E
:10264000204670BD9DF2FFFF01694A1C02610878B7
:10265000704700B58FB0CDE90131002105910549E2
:102660007944CDE9031011466846FFF763FF0FB0C8
:1026700000BD0000E5FFFFFF007B00F08000704719
:10268000754600F02BF8AE4605006946534620F02B
:102690000700854618B020B5FFF704F9BDE82040D3
:1026A0004FF000064FF000074FF000084FF0000B0E
:1026B00021F00701AC46ACE8C009ACE8C009ACE8C1
:1026C000C009ACE8C0098D46704710B50446AFF3A9
:1026D00000802046BDE81040FDF776BD00487047F9
:1026E0003801002004001C00050032000600210013
:1026F000070023000800240009002B000A00340012
:102700000B0033000C0043000D003B000E004200A4
:102710000F004B0010003A0011003100120044007D
:1027200013004D001400150015002D0016001B00AD
:1027300017002C0018003C0019002A001A001D0088
:102740001B0022001C0035001D001A002700450058
:102750001E0016001F001E0020002600210025007C
:1027600022002E002300360024003D0025003E00FC
:102770002600460028005A00290076002A0066003C
:102780002B000D002C0029002D004E002E005500BE
:102790002F00540030005B0031005D0032002FE05C
:1027A00033004C003400520035000E00360041006A
:1027B0003700490038004A00390058003A00050047
:1027C0003B0006003C0004003D000C003E000300FE
:1027D0003F000B004000830041000A00420001005E
:1027E00043000900440078004500070049007012CA
:1027F0004A006C124B007D124C0071124D006912A0
:102800004E007A124F00741250006B125100721277
:10281000520075125300770054004AE055007C00C6
:1028200056007B005700790058005AE059006900B3
:102830005A0072005B007A005C006B005D00730060
:102840005E0074005F006C006000750061007D0038
:10285000620070006300710064005900650012009E
:10286000660014E067001400000011E00100110090
:10287000020027E003001FE046007C1247007E00B4
:1028800048007714A4280008000000203C00000045
:102890006C010008E02800083C0000205C070000F4
:1028A0008801000800A24A040000000000000000A7
:1028B00001020304060708090204060800000000DC
:1028C00001020304010203040607080900000000D6
:1028D00000000000000000000000000000000000F8
:0400000508000131BD
:00000001FF
